:02000000532982
:1000060083120313F801F9011030FC00710DF80D8D
:10001600F90D7408F8027508031C750FF902031828
:100026001B287408F80775080318750FF9070310DD
:0A003600F00DF10DFC0B0928080085
:1000400083120313C7010530470203182E284708FF
:100050004607840020308000C70A23284708460747
:1000600084008001C70347084607C8000A30F4002F
:10007000F5014408F0004508F10003207808F0007D
:100080007908F1003030F0074808840070088000DB
:100090000A30F400F5014408F0004508F10003209F
:1000A0007008C4007108C50000307106031D5A288D
:1000B00000307006031D5D285F28C7033328080041
:1000C00083160313981866280000602883124408DA
:0400D000990008008B
:0E00D4008312031331088A00300882000800EE
:1000E2000E3083120313FD00FD0B7528000008007B
:1000F200831603139816903083129800831687177D
:10010200071383128C1E88281A08F0008228080020
:1001120083120313C001C1013B08C2003C08C300A3
:1001220080303C06F00080307002031D9A280030B7
:100132003B020318A8280130C0000030C1003B0870
:10014200003CC2003C08031C013EC301C30242083A
:10015200C4004308C5003D08C60020200630BE008A
:100162000030BF003F08003C031DB9283E08003C98
:100172000318D4283E083D07F20001303E02F00089
:100182000030031C013E3F02F10070083D0784006D
:100192000008F00072088400700880000130BE027E
:1001A200031CBF03B3283D088400203080004008B0
:1001B20041040319F228BE01BF013E083D07840035
:1001C2000008203A031DE928BE0A0319BF0ADE28E7
:1001D2000130BE02031CBF033E083D0784002D30E0
:0401E2008000080091
:1001E600831203139F01C0309F042009F00070089A
:1001F60083169F051F179F1783123B08F000F00D0B
:100206007010F00D7010F00D701070089F041F1420
:1002160071201F151F1D112900000D291F101E0812
:10022600F100F00183161E08F0040030F104080006
:1002360083120313BD013B0884000008BC003C0880
:10024600003A031930293C08C4006020BD0A3D0865
:0C0256003B0784000008BC0022290800BF
:100262006A208A110A128000840AB00A0319B10AAC
:08027200F003031D312908000F
:10027A00FF3083120313B800FF30B900FF30BA0011
:10028A00FF309F01C0309F042009F00070088316D8
:0C029A009F051F179F1783121F140800F8
:1002A60098213330831603139900181579203D21C0
:1002B600BB01F32070088312B2007108B300700806
:1002C600BB007108BC003430BD0089202130BB0062
:1002D6001B213430BB001B210D30C40060200B30C5
:1002E600FB002630FC005D30FD00FD0B7829FC0B81
:0E02F6007829FB0B7829000000005B29812984
:1003300020308400103083120313F0008730B000A7
:080340000130B1003121080079
:02030E000F34AA
:1003100041346E3461346C346F3467342034563475
:0E03200061346C34753465343D34203400345F
:02400E004A2F37
:00000001FF
