:020000000328D3
:1000060083160313860183128601033086000230AD
:10001600FB000430FC00BA30FD00FD0B1028FC0B81
:100026001028FB0B10280000063086000230FB006B
:100036000430FC00BA30FD00FD0B1F28FC0B1F2806
:10004600FB0B1F2800000C3086000230FB0004303A
:10005600FC00BA30FD00FD0B2E28FC0B2E28FB0BF6
:100066002E280000093086000230FB000430FC0018
:10007600BA30FD00FD0B3D28FC0B3D28FB0B3D284F
:06008600000008284528D7
:02400E004A2F37
:00000001FF
