:02000000422894
:0E0006008312031323088A00220882000800D8
:1000140083120313A401A50100302502031D142833
:1000240008302402031841282408F1000130F000AC
:10003400710803192128F00D7010FF3E1B28700869
:10004400880024082607F00027080318013E250726
:10005400F1007008A2007108A30003208A110A129B
:1000640086000330FC009730FD00FD0B3728FC0BA5
:10007400372800000000A40A0319A50A0E28080066
:1000840083160313880186018312A001A1010030A5
:100094002102031D4F286430200203185A28F2302D
:1000A400A6000030A7000A20A00A0319A10A4928C3
:1000B4008230FC00DD30FD00FD0B5E28FC0B5E2869
:1000C40000000000A001A10100302102031D6C28E2
:1000D4006430200203187728FA30A6000030A70005
:1000E4000A20A00A0319A10A66288230FC00DD3028
:1000F400FD00FD0B7B28FC0B7B2800000000A00109
:10010400A10100302102031D892864302002031854
:100114009428EA30A6000030A7000A20A00A031998
:10012400A10A83288230FC00DD30FD00FD0B9828F5
:10013400FC0B982800000000A001A101003021025E
:10014400031DA628643020020318B128DA30A60063
:100154000030A7000A20A00A0319A10AA0288230AF
:10016400FC00DD30FD00FD0BB528FC0BB5280000BC
:100174000000A001A10100302102031DC328643046
:1001840020020318CE28E230A6000030A7000A207F
:10019400A00A0319A10ABD288230FC00DD30FD004D
:1001A400FD0BD228FC0BD228000000004628D928D9
:1001B400FF34FF340E341C3438347034FF34FF34CD
:1001C4003C346634C334C334C334C33466343C343B
:1001D4007C34663466347C347C346C346E346734FA
:1001E400FF34FF34183418341834183418341834DD
:1001F400E734E734E734E734E734E734FF34FF34F3
:02400E004A2F37
:00000001FF
