:020000004B288B
:100006008312031306140330FC009730FD00FD0B2A
:100016000A28FC0B0A280000000006103230FC00FB
:100026005830FD00FD0B1528FC0B152800000800B4
:100036008312031306140630FC003030FD00FD0B5E
:100046002228FC0B2228000006102F30FC00BF30AF
:10005600FD00FD0B2C28FC0B2C28000000000800DE
:100066008312031306140430FC00E430FD00FD0B7C
:100076003A28FC0B3A28000006103130FC000B3001
:10008600FD00FD0B4428FC0B44280000000008007E
:10009600831603138601FF308312860003200B307C
:1000A600FB002630FC005D30FD00FD0B5828FC0BE4
:1000B6005828FB0B58280000000033200B30FB00AB
:1000C6002630FC005D30FD00FD0B6728FC0B672821
:1000D600FB0B6728000000001B200B30FB002630BE
:1000E600FC005D30FD00FD0B7628FC0B7628FB0B33
:0A00F60076280000000051287F2842
:02400E004A2F37
:00000001FF
