:02000000E628F0
:10000600710DF80DF90D7408F8027508031C750FCB
:10001600F902F00DF10D0F30FC00710DF80DF90D20
:100026007408701C1C28F8027508031C750FF90269
:100036002128F80775080318750FF907F00DF10D5B
:10004600FC0B102870182D287408F807750803187B
:08005600750FF9070000080016
:10005E00831203137408003A031D3E287508003AF4
:10006E00031D3E28FF30F0007F30F10097288312E9
:10007E000313FD01F901F80171087004031900342E
:10008E0071087506FA00FA1BFD09FB01F51F5428CD
:10009E00F409F509F40A0319F50AF11F5B28F009B2
:1000AE00F109F00A0319F10A71087504FA00FA1B36
:1000BE00702803207B188328FD1F0034F009F109F6
:1000CE00F00A0319F10AF809F909F80A0319F90AED
:1000DE000034F51F7F28F11B7B287108F90070088A
:1000EE00F800F101F0016328F101F001F00A00348B
:1000FE00F109F009FB0A6028F80A0319F90A7408D5
:10010E007802031D632875087902031D6328F9011F
:10011E00F801F00A0319F10AF11F63280000FF34F9
:02012E000800C7
:0E013000831203132F088A002E088200080095
:10013E0001308312031387000A30F4000030F500FB
:10014E003008F0003108F1002F207808F00079080F
:10015E00F1007008223E8400000886000D30FC007D
:10016E00FB30FD00FD0BB928FC0BB9280000000088
:10017E00023087000A30F4000030F5003008F0003D
:10018E003108F1002F207008223E840000088600FE
:10019E000D30FC00FB30FD00FD0BD328FC0BD328EB
:0601AE0000000000080043
:1001B40098208A110A128000840AAE0A0319AF0A31
:0801C400F003031DDA28080016
:1001CC0083120313A001A1013F30A2000630A3004B
:1001DC005B30A4004F30A5006630A6006D30A70040
:1001EC007D30A8000730A9007F30AA006F30AB002B
:1001FC008316860183128601831687018312870179
:10020C00AC01AD0180302D06F00080307002031D72
:10021C00112964302C0203181C292008B000210875
:10022C00B1009F20AC0A0319AD0A0829A00A0319D2
:10023C00A10A8030F000803021067002031D2829AD
:10024C002008633C03182C29A001A10106292D29A3
:00000001FF
