:02000000762860
:1000060083120313FB01FA01F9018030F800F10CA9
:10001600F00C031C17287408F90775080318750FE8
:10002600FA070318FB0A0310F01F1F287408FA07C3
:1000360075080318750FFB07FB0CFA0CF90CF80C86
:10004600031C0A287B08F3007A08F2007908F100FD
:060056007808F00008002C
:0C005C008312031395011712971208007D
:10006800831603130711831212150C309704080026
:10007800831603131208013EF000F1010318F10A78
:1000880083122308F400F50103200630F2007008FB
:10009800F4007108F500720803195728F50CF40CE0
:1000A800F513FF3E50280430F1007408F000710881
:1000B80003196228F00D7010FF3E5C28303070057F
:1000C800F3007408F0007508F100F10CF00CF1135E
:1000D800F10CF00CF113700895000F3097057308B8
:0400E8009704080071
:1000EC0083120313A20183168601FF30880083124A
:1000FC0006148610121492147C30831692002E2053
:10010C0034202208A3003C20081CBB288030A21BF2
:10011C007F30F00080307002031D9628FF302202E1
:10012C000318BB280230FB000430FC00BA30FD0081
:10013C00FD0B9E28FC0B9E28FB0B9E280000081C28
:10014C00BB288030A21B7F30F00080307002031D72
:10015C00B128FF3022020318BB280A302207F00016
:10016C007008A2007008A3003C20881CE428803092
:10017C00003AF0008030220670020318E4280230A6
:10018C00FB000430FC00BA30FD00FD0BCB28FC0B4F
:10019C00CB28FB0BCB280000081CE4288030003A4D
:1001AC00F0008030220670020318E4280A30220284
:1001BC00F0007008A2007008A3003C208A28E528F3
:02400E004A2F37
:00000001FF
