:02000000B02D21
:0E000600213083120313FD00FD0B07280800B4
:100014000F3083120313FC004730FD00FD0B102842
:0A002400FC0B10280000000008008B
:06002E00000000000800C4
:1000340083120313E41B2028861221288616641BCE
:100044002528061226280616E41A2A2886112B28A3
:100054008615641A2F2806113028061554183428DA
:10006400061435280610861417208610E4193C2837
:1000740086123D288616641941280612422806165F
:10008400E418462886114728861564184B2806115B
:100094004C280615541850280614512806108614A6
:1000A40017208610541C58280A20592803200800B9
:1000B400FB14FB1F6428FF30F300F200F100F00092
:0800C400FA0DF20CFF300800F8
:0800CC00FA1FF21300300800D6
:1000D4007B15FB1F74280130F300F201F101F001DC
:0800E400FA0DF20CFF300800D8
:0E00EC00F201F101F001F801F301003008000B
:1000FA000E3083120313FD00FD0B81280000080057
:0E010A008312031349088A0048088200080087
:06011800FB15FF3008009A
:10011E00A0017208031DA4287108F2007008F100F6
:10012E00F001A0157208031DA4287108F200F10158
:10013E00A011201672080319B2282008F302031D1D
:10014E00031CB6280310F21BBA28F00DF10DF20DA8
:10015E00F30BAA28B6280130FC007620BD28023009
:0E016E00FC006A20BD280430FC00662008005A
:10017C0083120313FB017308031D77080319152958
:10018C0072087606FA007708F3077E30031CD22833
:10019C00F30203181829D528F302031C1B29720833
:1001AC00F8007108FC007008FD00F817F617031032
:1001BC00F201F101F0011830A0007D1CEF28740849
:1001CC00F00775080318750FF10776080318760FFA
:1001DC00F207F20CF10CF00CF80CFC0CFD0C0310FB
:1001EC00A00BE328F21BFF28F80DF00DF10DF20D1A
:1001FC00F3037B1B701C1129F81F1129F00A03193A
:10020C00F10A0319F20A031D1129F20CF10CF00C7E
:10021C00F30A03191829FA1FF21300301D290130B3
:10022C0076201D2902305A201D2904306A20000036
:02023C000800B8
:10023E0083120313FA017308031D7A147708031D42
:10024E00FA147A0803196B29033A031936297A1816
:10025E003329F61F69296729F21F67296929720850
:10026E008039FA00F21376088039F6137A060319EC
:10027E0044297A0803196729692977087302031933
:10028E004B29031C5F296329760872020319522930
:10029E00031C5F2963297508710203195929031C70
:1002AE005F2963297408700203196B2903186329E7
:1002BE00FA08031969296729FA08031967296929B0
:1002CE0003140800031008000314031508000800A7
:1002DE00831203136208F2007208F100F20A630837
:1002EE00F000E30A700884000008F0007108840032
:1002FE00700880007108840000080319872973298B
:06030E006208F000080087
:1003140083120313FD01F8017008031900347406F5
:10032400FA00FA1BFD09FB01F41F9A29F409F40AE7
:10033400F01F9E29F009F00A70087404FA00FA1BF1
:10034400C2297408F802F00D700DF80D7408F8074E
:10035400F00D0630FC00700DF80D74087018F802EA
:10036400701CF807F00DFC0BAD29701CF8077B1806
:10037400D029FD1F0034F009F00AF809F80A003406
:10038400F41FCD29F01BCA297008F800F001BB291D
:10039400F001F00A0034F009FB0AA329F80A7408F2
:1003A4007802031DBB29F801F00AF01FBB29FF34B2
:0203B40008003F
:1003B6008312031354106208E4001A205414080030
:1003C600831203135508F20072088400000803190B
:1003D600EE29F20AE7297208F100F20A5608F0003F
:1003E600D60A700884000008F000710884007008BE
:1003F60080007108840000080319022AEE295508B6
:04040600F0000800FA
:10040A0083120313E001E1015508DC005608DD0000
:10041A005708DE005808DF005F08FF3A031D1F2A4D
:10042A005E08FF3A031D1F2A5D08FF3A031D1F2AB3
:10043A005C08FF3A031D292A5908E2003A30E30012
:10044A006F210330F000022C0130DA00DE1F382A57
:10045A0080305E06F0007008DE00DA0A590884006F
:10046A002D308000D90A0030F0005F06031D472AAC
:10047A0070085E06031D472A70085D06031D472A99
:10048A005C08003A031D502A5908E2004330E30091
:10049A006F21F001022C5F08FF3A031D5E2A5E08F5
:1004AA00003A031D5E2A5D08003A031D5E2A5C08B5
:1004BA00003A031D682A5908E2003F30E3006F2121
:1004CA005A08F000022C0030F4000030F500003029
:1004DA00F6007F30F7005C08F0005D08F1005E0866
:1004EA00F2005F08F3001F21013003180030F0000A
:1004FA00700803199B2A5C08F0005D08F1005E0889
:10050A00F2005F08F3000030F4000030F5002030FC
:10051A00F6008230F700BE207008DC007108DD00AA
:10052A007208DE007308DF00E103682A0030F40075
:10053A000030F5002030F6008230F7005C08F00049
:10054A005D08F1005E08F2005F08F3001F21013028
:10055A00031C0030F00070080319CE2A5C08F00072
:10056A005D08F1005E08F2005F08F300CD30F40088
:10057A00CC30F5004C30F6007B30F700BE20700816
:10058A00DC007108DD007208DE007308DF00E10A92
:10059A009B2AFF305C05F800FF305D05F9007F30CB
:1005AA005E05FA0000305F05FB007808F400790860
:1005BA00F5007A08F6007B08F700F40DF50DF60D44
:1005CA00F70D741000305C05F00000305D05F10095
:1005DA0000305E05F200FF305F05F3007008DC00B2
:1005EA007108DD007208DE007308DF0074085C041D
:1005FA00F00075085D04F10076085E04F2007708E1
:10060A005F04F3007008DC007108DD007208DE0088
:10061A007308DF007F305F02F0007008DB000130F2
:10062A00DF007008F4005C08F0005D08F1005E0865
:10063A00F2005F08F300740803192A2BF00DF10D7C
:10064A00F20DF30D7010FF3E212B7008DC007108CB
:10065A00DD007208DE007308DF005F08303EF0003C
:10066A005908840070088000D90A80306106F000B9
:10067A008030013A7002031C4B2B8030063AF0009E
:10068A00803061067002031C4B2B522B59088400E0
:10069A002E308000D90A0130E0000630DB005B080A
:1006AA00003A0319B02BDF015C08F0005D08F10085
:1006BA005E08F2005F08F300F00DF10DF20DF30D84
:1006CA007010F00DF10DF20DF30D70105C08F007CB
:1006DA005D0803185D0FF1075E0803185E0FF20745
:1006EA005F0803185F0FF3077008DC007108DD006C
:1006FA007208DE007308DF005C08F0005D08F10094
:10070A005E08F2005F08F300F00DF10DF20DF30D33
:10071A0070107008DC007108DD007208DE007308D2
:10072A00DF005F08303EF00059088400700880003E
:10073A00D90A6008003A031DAE2BE1036108003AAA
:10074A00031DAE2B590884002E308000D90A0130CF
:10075A00E000DB03542BFF30590784000008303ACD
:10076A00031DB92BD903B02BFF30590784000008A9
:10077A002E3A031DC12BD9036108003A0319FE2B37
:10078A005908840065308000D90A80306106F0007B
:10079A008030003A70020318DA2B590884002D3091
:1007AA008000D90A6108003CE1006108DB00803062
:1007BA00093AF0008030610670020318F02B0A3003
:1007CA00F4005B08F0008A213030F00759088400F1
:1007DA0070088000D90A0A30F4005B08F0008A2108
:1007EA007808F0003030F00759088400700880005B
:0C07FA00D90A590884008001F0010800B1
:10080600831203137008F8007108F000F101F20179
:10081600F301FB01FC019630F300FA01F01F192CDD
:10082600F809F009F80A0319F00AFA177008F10036
:0C0836007808F000F801F2018F200800A3
:10084200332C803083120313D500462CC030D500E0
:10085200462C9430D500462CD430D500462C80301E
:10086200D500462C831203135508013A0319222C92
:100872005508023A0319272C5508033A03192A2C62
:100882005508043A03192D2C302C5603F000550854
:10089200F0077008D5007008E4001A205410D8013F
:1008A200580857078400000803195F2C5808570797
:1008B20084000008E200DB21D80A512C54140800FD
:1008C200831203137408003A031D7C2C7508003A46
:1008D200031D7C2C7608003A031D7C2C7708003A15
:1008E200031D7C2CFF30F000FF30F1007F30F2005E
:1008F200FF30F300172D83120313770803190B2D12
:10090200730803190E2D720876068039FA00F21761
:10091200F617A0017208F8007108FC007008FD00CB
:100922007408FD027508031C750FFC027608031C8F
:10093200760FF802F801FC01FD01031CA72C03103D
:10094200F20CF10CF00CF80C0130A0007708F30265
:10095200031CB12C7E302007F3070318112DB62C8F
:100962007E302007F307031C142D1830FA07FD0D03
:10097200FC0DF80DF00DF10DF20DA00D7408F00252
:100982007508031C750FF1027608031C760FF2023C
:10099200760DA004201CCF2C7D14DA2C7408F007ED
:1009A20075080318750FF10776080318760AF2071F
:1009B2007D10FA031F307A05031DB82C7B1B7D1CAA
:1009C200012D0310F00DF10DF20DA00D7408F002CF
:1009D2007508031C750FF1027608031C760FF202EC
:1009E200760D20040139FD070318FC0A0319F80AE1
:1009F200031D012DF80CFC0CFD0CF30A0319112D3B
:100A0200FA1FF8137808F2007C08F1007D08F00064
:100A12000030162D01308C20162D02307620162D36
:0E0A220004305A20162D08306A20000008000B
:100A3000831203139F01C0309F043E09F000700829
:100A400083169F051F179F1783125508F000F00D9E
:100A50007010F00D7010F00D701070089F041F14CE
:100A60007D201F151F1D362D0000322D1F101E0862
:100A7000F100F00183161E08F0040030F1040800B4
:100A800083160313861006100611861106128612AD
:100A900083128610061086120612861106110A208D
:100AA0000A200A20861506158614172086100A20AB
:100AB0008614172086100A208614172086100A2014
:100AC00006118614172086100A2086141720861017
:100AD000861186168614172086100A20861206159F
:100AE00086141720861006118614172086100A20F7
:100AF00086141720861006158614172086100A20E3
:100B000006118614172086108616061686150615F9
:0C0B10008614172086100A2054140800D8
:100B1C00FF3083120313C500FF30C600FF30C7003F
:100B2C00FF309F01C0309F043E09F000700883160F
:0C0B3C009F051F179F1783121F1408004D
:100B480085208A110A128000840AC80A0319C90A72
:080B5800F003031DA42D0800A9
:100B60004226831603138601FF3085008312860117
:100B70008E2540250130E4001A200C30E4001A20B4
:100B8000D501182570088312D2007108D300032400
:100B9000F630F4002830F5001C30F6008130F70004
:100BA000BE207008CE007108CF007208D000730814
:100BB000D1000030F4000030F5002030F600823023
:100BC000F70061247008CA007108CB007208CC00DD
:100BD0007308CD007008D5007108D6007208D700E0
:100BE0007308D8002130D90005222130D5003730D4
:100BF000D600E3210130D5000130D6003130D700D6
:100C000021240130D5000630D6002130D700212420
:100C10000B30FB002630FC005D30FD00FD0B0E2E7E
:100C2000FC0B0E2EFB0B0E2E00000000C02D172E0D
:100C840021308400243083120313F0001D30C80087
:080C94000630C900A425080088
:100C3A00003400340034003400340034003400340A
:100C4A0000340034003400340034003400340034FA
:0C0C5A00543465346D3470343D34003483
:060C660020344334003489
:080C6C004E3461344E340034B3
:020C74000F343B
:080C760049344E3446340034C9
:040C7E0030340034DA
:02400E004A2F37
:00000001FF
