:020000002829AD
:10000600710DF80DF90D7408F8027508031C750FCB
:10001600F902F00DF10D0F30FC00710DF80DF90D20
:100026007408701C1C28F8027508031C750FF90269
:100036002128F80775080318750FF907F00DF10D5B
:10004600FC0B102870182D287408F807750803187B
:08005600750FF9070000080016
:10005E00831203137408003A031D3E287508003AF4
:10006E00031D3E28FF30F0007F30F10097288312E9
:10007E000313FD01F901F80171087004031900342E
:10008E0071087506FA00FA1BFD09FB01F51F5428CD
:10009E00F409F509F40A0319F50AF11F5B28F009B2
:1000AE00F109F00A0319F10A71087504FA00FA1B36
:1000BE00702803207B188328FD1F0034F009F109F6
:1000CE00F00A0319F10AF809F909F80A0319F90AED
:1000DE000034F51F7F28F11B7B287108F90070088A
:1000EE00F800F101F0016328F101F001F00A00348B
:1000FE00F109F009FB0A6028F80A0319F90A7408D5
:10010E007802031D632875087902031D6328F9011F
:10011E00F801F00A0319F10AF11F63280000FF34F9
:02012E000800C7
:0E013000831203132D088A002C088200080099
:10013E0007308312031387000A30F4000030F500F5
:10014E002E08F0002F08F1002F207808F000790813
:10015E00F1007008223E8400000886001A30FC0070
:10016E00F830FD00FD0BB928FC0BB92800000B3050
:10017E0087000A30F4000030F5002E08F0002F083A
:10018E00F1002F200A30F4000030F5002F207808FF
:10019E00F0007908F1007008223E84000008860005
:1001AE001A30FC00F830FD00FD0BDB28FC0BDB28C1
:1001BE0000000D3087006430F4000030F5002E088A
:1001CE00F0002F08F1002F200A30F4000030F50067
:1001DE002F207808F0007908F1007008223E840084
:1001EE00000886001A30FC00F830FD00FD0BFD28DB
:1001FE00FC0BFD2800000E308700E830F4000330C1
:10020E00F5002E08F0002F08F1002F207008223E76
:10021E008400000886001A30FC00F830FD00FD0B4B
:0A022E001629FC0B16290000080039
:1002380098208A110A128000840AAC0A0319AD0AB0
:08024800F003031D1C2908004E
:1002500083120313A001A1013F30A2000630A300C6
:100260005B30A4004F30A5006630A6006D30A700BB
:100270007D30A8000730A9007F30AA006F30AB00A6
:1002800083168601831286018316870183128701F4
:10029000FF30831688008312081C6C29081C5B2918
:1002A0000D30FC00FB30FD00FD0B5429FC0B5429E4
:1002B000000000004E29A00A0319A10A8030273A45
:1002C000F000803021067002031D682920080F3CD1
:1002D00003186C29A001A101881C8E29881C7B2988
:1002E0000D30FC00FB30FD00FD0B7429FC0B742964
:1002F000000000006E290130A002031CA103803021
:100300002106F00080307002031D88290030200291
:1003100003188E290F30A0002730A1002008AE005E
:0A0320002108AF009F204B2994290B
:02400E004A2F37
:00000001FF
