:020000001628C0
:0E000600831203132B088A002A0882000800C8
:1000140003208A110A128000840AAA0A0319AB0A6F
:08002400F003031D0A28080087
:10002C003F3083120313A0000630A1005B30A20006
:10003C004F30A3006630A4006D30A5007D30A600C3
:10004C000730A7007F30A8006F30A900FF30AC004C
:10005C00FF30AD0083168601831286018316871448
:10006C0007158312871C592880302D06F00080302C
:10007C007002031D432809302C0203185928871CD1
:10008C0051281A30FC00F830FD00FD0B4B28FC0BFE
:10009C004B2800004528AC0A0319AD0A2C08203E59
:1000AC00840000088600071D7B288030F00080301B
:1000BC002D067002031D64282C08003C03187B28B5
:1000CC00071D72281A30FC00F830FD00FD0B6C285F
:1000DC00FC0B6C28000066280130AC02031CAD033D
:0E00EC002C08203E84000008860037287C285F
:02400E004A2F37
:00000001FF
